{
  "_format": "hh-sol-artifact-1",
  "contractName": "OVM_L1StandardBridge",
  "sourceName": "contracts/optimistic-ethereum/OVM/bridge/tokens/OVM_L1StandardBridge.sol",
  "abi": [
    {
      "inputs": [],
      "stateMutability": "nonpayable",
      "type": "constructor"
    },
    {
      "anonymous": false,
      "inputs": [
        {
          "indexed": true,
          "internalType": "address",
          "name": "_l1Token",
          "type": "address"
        },
        {
          "indexed": true,
          "internalType": "address",
          "name": "_l2Token",
          "type": "address"
        },
        {
          "indexed": true,
          "internalType": "address",
          "name": "_from",
          "type": "address"
        },
        {
          "indexed": false,
          "internalType": "address",
          "name": "_to",
          "type": "address"
        },
        {
          "indexed": false,
          "internalType": "uint256",
          "name": "_amount",
          "type": "uint256"
        },
        {
          "indexed": false,
          "internalType": "bytes",
          "name": "_data",
          "type": "bytes"
        }
      ],
      "name": "ERC20DepositInitiated",
      "type": "event"
    },
    {
      "anonymous": false,
      "inputs": [
        {
          "indexed": true,
          "internalType": "address",
          "name": "_l1Token",
          "type": "address"
        },
        {
          "indexed": true,
          "internalType": "address",
          "name": "_l2Token",
          "type": "address"
        },
        {
          "indexed": true,
          "internalType": "address",
          "name": "_from",
          "type": "address"
        },
        {
          "indexed": false,
          "internalType": "address",
          "name": "_to",
          "type": "address"
        },
        {
          "indexed": false,
          "internalType": "uint256",
          "name": "_amount",
          "type": "uint256"
        },
        {
          "indexed": false,
          "internalType": "bytes",
          "name": "_data",
          "type": "bytes"
        }
      ],
      "name": "ERC20WithdrawalFinalized",
      "type": "event"
    },
    {
      "anonymous": false,
      "inputs": [
        {
          "indexed": true,
          "internalType": "address",
          "name": "_from",
          "type": "address"
        },
        {
          "indexed": true,
          "internalType": "address",
          "name": "_to",
          "type": "address"
        },
        {
          "indexed": false,
          "internalType": "uint256",
          "name": "_amount",
          "type": "uint256"
        },
        {
          "indexed": false,
          "internalType": "bytes",
          "name": "_data",
          "type": "bytes"
        }
      ],
      "name": "ETHDepositInitiated",
      "type": "event"
    },
    {
      "anonymous": false,
      "inputs": [
        {
          "indexed": true,
          "internalType": "address",
          "name": "_from",
          "type": "address"
        },
        {
          "indexed": true,
          "internalType": "address",
          "name": "_to",
          "type": "address"
        },
        {
          "indexed": false,
          "internalType": "uint256",
          "name": "_amount",
          "type": "uint256"
        },
        {
          "indexed": false,
          "internalType": "bytes",
          "name": "_data",
          "type": "bytes"
        }
      ],
      "name": "ETHWithdrawalFinalized",
      "type": "event"
    },
    {
      "inputs": [
        {
          "internalType": "address",
          "name": "_l1Token",
          "type": "address"
        },
        {
          "internalType": "address",
          "name": "_l2Token",
          "type": "address"
        },
        {
          "internalType": "uint256",
          "name": "_amount",
          "type": "uint256"
        },
        {
          "internalType": "uint32",
          "name": "_l2Gas",
          "type": "uint32"
        },
        {
          "internalType": "bytes",
          "name": "_data",
          "type": "bytes"
        }
      ],
      "name": "depositERC20",
      "outputs": [],
      "stateMutability": "nonpayable",
      "type": "function"
    },
    {
      "inputs": [
        {
          "internalType": "address",
          "name": "_l1Token",
          "type": "address"
        },
        {
          "internalType": "address",
          "name": "_l2Token",
          "type": "address"
        },
        {
          "internalType": "address",
          "name": "_to",
          "type": "address"
        },
        {
          "internalType": "uint256",
          "name": "_amount",
          "type": "uint256"
        },
        {
          "internalType": "uint32",
          "name": "_l2Gas",
          "type": "uint32"
        },
        {
          "internalType": "bytes",
          "name": "_data",
          "type": "bytes"
        }
      ],
      "name": "depositERC20To",
      "outputs": [],
      "stateMutability": "nonpayable",
      "type": "function"
    },
    {
      "inputs": [
        {
          "internalType": "uint32",
          "name": "_l2Gas",
          "type": "uint32"
        },
        {
          "internalType": "bytes",
          "name": "_data",
          "type": "bytes"
        }
      ],
      "name": "depositETH",
      "outputs": [],
      "stateMutability": "payable",
      "type": "function"
    },
    {
      "inputs": [
        {
          "internalType": "address",
          "name": "_to",
          "type": "address"
        },
        {
          "internalType": "uint32",
          "name": "_l2Gas",
          "type": "uint32"
        },
        {
          "internalType": "bytes",
          "name": "_data",
          "type": "bytes"
        }
      ],
      "name": "depositETHTo",
      "outputs": [],
      "stateMutability": "payable",
      "type": "function"
    },
    {
      "inputs": [
        {
          "internalType": "address",
          "name": "",
          "type": "address"
        },
        {
          "internalType": "address",
          "name": "",
          "type": "address"
        }
      ],
      "name": "deposits",
      "outputs": [
        {
          "internalType": "uint256",
          "name": "",
          "type": "uint256"
        }
      ],
      "stateMutability": "view",
      "type": "function"
    },
    {
      "inputs": [],
      "name": "donateETH",
      "outputs": [],
      "stateMutability": "payable",
      "type": "function"
    },
    {
      "inputs": [],
      "name": "feeToken",
      "outputs": [
        {
          "internalType": "address",
          "name": "",
          "type": "address"
        }
      ],
      "stateMutability": "view",
      "type": "function"
    },
    {
      "inputs": [
        {
          "internalType": "address",
          "name": "_l1Token",
          "type": "address"
        },
        {
          "internalType": "address",
          "name": "_l2Token",
          "type": "address"
        },
        {
          "internalType": "address",
          "name": "_from",
          "type": "address"
        },
        {
          "internalType": "address",
          "name": "_to",
          "type": "address"
        },
        {
          "internalType": "uint256",
          "name": "_amount",
          "type": "uint256"
        },
        {
          "internalType": "bytes",
          "name": "_data",
          "type": "bytes"
        }
      ],
      "name": "finalizeERC20Withdrawal",
      "outputs": [],
      "stateMutability": "nonpayable",
      "type": "function"
    },
    {
      "inputs": [
        {
          "internalType": "address",
          "name": "_from",
          "type": "address"
        },
        {
          "internalType": "address",
          "name": "_to",
          "type": "address"
        },
        {
          "internalType": "uint256",
          "name": "_amount",
          "type": "uint256"
        },
        {
          "internalType": "bytes",
          "name": "_data",
          "type": "bytes"
        }
      ],
      "name": "finalizeETHWithdrawal",
      "outputs": [],
      "stateMutability": "nonpayable",
      "type": "function"
    },
    {
      "inputs": [
        {
          "internalType": "address",
          "name": "_l1messenger",
          "type": "address"
        },
        {
          "internalType": "address",
          "name": "_l2TokenBridge",
          "type": "address"
        },
        {
          "internalType": "address",
          "name": "_feeToken",
          "type": "address"
        }
      ],
      "name": "initialize",
      "outputs": [],
      "stateMutability": "nonpayable",
      "type": "function"
    },
    {
      "inputs": [],
      "name": "l2TokenBridge",
      "outputs": [
        {
          "internalType": "address",
          "name": "",
          "type": "address"
        }
      ],
      "stateMutability": "view",
      "type": "function"
    },
    {
      "inputs": [],
      "name": "messenger",
      "outputs": [
        {
          "internalType": "address",
          "name": "",
          "type": "address"
        }
      ],
      "stateMutability": "view",
      "type": "function"
    },
    {
      "stateMutability": "payable",
      "type": "receive"
    }
  ],
  "bytecode": "0x608060405234801561001057600080fd5b50600080546001600160a01b03191690556115ee806100306000396000f3fe6080604052600436106100ab5760003560e01c80638f601f66116100645780638f601f66146101ac57806391c49bf8146101d95780639a2ac6d5146101ee578063a9f9e67514610201578063b1a1a88214610221578063c0c53b8b14610234576100ff565b80631532ec34146101045780633cb747bf1461012457806358a997f61461014f578063647846a51461016f578063838b2520146101845780638b4c40b0146101a4576100ff565b366100ff576100b933610254565b156100df5760405162461bcd60e51b81526004016100d6906113ff565b60405180910390fd5b6100fd33336213d6206040518060200160405280600081525061025e565b005b600080fd5b34801561011057600080fd5b506100fd61011f36600461110d565b61032b565b34801561013057600080fd5b5061013961052e565b6040516101469190611319565b60405180910390f35b34801561015b57600080fd5b506100fd61016a36600461117a565b61053d565b34801561017b57600080fd5b5061013961057b565b34801561019057600080fd5b506100fd61019f36600461109e565b61058a565b6100fd6105a3565b3480156101b857600080fd5b506101cc6101c7366004610f9c565b6105a5565b60405161014691906114c2565b3480156101e557600080fd5b506101396105c2565b6100fd6101fc3660046111f7565b6105d1565b34801561020d57600080fd5b506100fd61021c366004611010565b610619565b6100fd61022f366004611256565b610803565b34801561024057600080fd5b506100fd61024f366004610fce565b610870565b803b15155b919050565b600063662a633a60e01b60006006602160991b018787348760405160240161028b9695949392919061132d565b60408051601f198184030181529190526020810180516001600160e01b03166001600160e01b0319909316929092179091526001549091506102d7906001600160a01b031684836108d8565b836001600160a01b0316856001600160a01b03167f35d79ab81f2b2017e19afb5c5571778877782d7a8786f5907f93b0f4702f4f23348560405161031c9291906114ee565b60405180910390a35050505050565b6001546001600160a01b031661033f6109ba565b6001600160a01b0316336001600160a01b03161461038e5760405162461bcd60e51b815260040180806020018281038252602e81526020018061155a602e913960400191505060405180910390fd5b806001600160a01b03166103a06109ba565b6001600160a01b0316636e296e456040518163ffffffff1660e01b815260040160206040518083038186803b1580156103d857600080fd5b505afa1580156103ec573d6000803e3d6000fd5b505050506040513d602081101561040257600080fd5b50516001600160a01b0316146104495760405162461bcd60e51b81526004018080602001828103825260308152602001806115886030913960400191505060405180910390fd5b604080516000808252602082019092526001600160a01b03871690869060405161047391906112fd565b60006040518083038185875af1925050503d80600081146104b0576040519150601f19603f3d011682016040523d82523d6000602084013e6104b5565b606091505b50509050806104d65760405162461bcd60e51b81526004016100d690611428565b856001600160a01b0316876001600160a01b03167f2ac69ee804d9a7a0984249f508dfab7cb2534b465b6ce1580f99a38ba9c5e63187878760405161051d939291906114cb565b60405180910390a350505050505050565b6000546001600160a01b031681565b61054633610254565b156105635760405162461bcd60e51b81526004016100d6906113ff565b61057386863333888888886109c9565b505050505050565b6002546001600160a01b031681565b61059a87873388888888886109c9565b50505050505050565b565b600360209081526000928352604080842090915290825290205481565b6001546001600160a01b031681565b61061333858585858080601f01602080910402602001604051908101604052809392919081815260200183838082843760009201919091525061025e92505050565b50505050565b6001546001600160a01b031661062d6109ba565b6001600160a01b0316336001600160a01b03161461067c5760405162461bcd60e51b815260040180806020018281038252602e81526020018061155a602e913960400191505060405180910390fd5b806001600160a01b031661068e6109ba565b6001600160a01b0316636e296e456040518163ffffffff1660e01b815260040160206040518083038186803b1580156106c657600080fd5b505afa1580156106da573d6000803e3d6000fd5b505050506040513d60208110156106f057600080fd5b50516001600160a01b0316146107375760405162461bcd60e51b81526004018080602001828103825260308152602001806115886030913960400191505060405180910390fd5b6001600160a01b038089166000908152600360209081526040808320938b16835292905220546107679085610af9565b6001600160a01b03808a166000818152600360209081526040808320948d168352939052919091209190915561079e908686610b56565b856001600160a01b0316876001600160a01b0316896001600160a01b03167f3ceee06c1e37648fcbb6ed52e17b3e1f275a1f8c7b22a84b2b84732431e046b3888888886040516107f194939291906113cd565b60405180910390a45050505050505050565b61080c33610254565b156108295760405162461bcd60e51b81526004016100d6906113ff565b61086b33338585858080601f01602080910402602001604051908101604052809392919081815260200183838082843760009201919091525061025e92505050565b505050565b6000546001600160a01b0316156108995760405162461bcd60e51b81526004016100d69061147c565b600080546001600160a01b039485166001600160a01b031991821617909155600180549385169382169390931790925560028054919093169116179055565b6108e06109ba565b6001600160a01b0316633dbb202b8483856040518463ffffffff1660e01b815260040180846001600160a01b03168152602001806020018363ffffffff168152602001828103825284818151815260200191508051906020019080838360005b83811015610958578181015183820152602001610940565b50505050905090810190601f1680156109855780820380516001836020036101000a031916815260200191505b50945050505050600060405180830381600087803b1580156109a657600080fd5b505af115801561059a573d6000803e3d6000fd5b6000546001600160a01b031690565b6109de6001600160a01b038916873087610ba8565b600063662a633a60e01b89898989898888604051602401610a05979695949392919061137c565b60408051601f198184030181529190526020810180516001600160e01b03166001600160e01b031990931692909217909152600154909150610a51906001600160a01b031685836108d8565b6001600160a01b03808a166000908152600360209081526040808320938c1683529290522054610a819086610c02565b6001600160a01b03808b1660008181526003602090815260408083208e86168085529252918290209490945551918a1692917f718594027abd4eaed59f95162563e0cc6d0e8d5b86b1c7be8b1b0ac3343d039690610ae6908b908b908a908a906113cd565b60405180910390a4505050505050505050565b600082821115610b50576040805162461bcd60e51b815260206004820152601e60248201527f536166654d6174683a207375627472616374696f6e206f766572666c6f770000604482015290519081900360640190fd5b50900390565b604080516001600160a01b038416602482015260448082018490528251808303909101815260649091019091526020810180516001600160e01b031663a9059cbb60e01b17905261086b908490610c63565b604080516001600160a01b0380861660248301528416604482015260648082018490528251808303909101815260849091019091526020810180516001600160e01b03166323b872dd60e01b179052610613908590610c63565b600082820183811015610c5c576040805162461bcd60e51b815260206004820152601b60248201527f536166654d6174683a206164646974696f6e206f766572666c6f770000000000604482015290519081900360640190fd5b9392505050565b6000610cb8826040518060400160405280602081526020017f5361666545524332303a206c6f772d6c6576656c2063616c6c206661696c6564815250856001600160a01b0316610d149092919063ffffffff16565b80519091501561086b57808060200190516020811015610cd757600080fd5b505161086b5760405162461bcd60e51b815260040180806020018281038252602a8152602001806115b8602a913960400191505060405180910390fd5b6060610d238484600085610d2b565b949350505050565b606082471015610d6c5760405162461bcd60e51b81526004018080602001828103825260268152602001806115346026913960400191505060405180910390fd5b610d7585610254565b610dc6576040805162461bcd60e51b815260206004820152601d60248201527f416464726573733a2063616c6c20746f206e6f6e2d636f6e7472616374000000604482015290519081900360640190fd5b600080866001600160a01b031685876040518082805190602001908083835b60208310610e045780518252601f199092019160209182019101610de5565b6001836020036101000a03801982511681845116808217855250505050505090500191505060006040518083038185875af1925050503d8060008114610e66576040519150601f19603f3d011682016040523d82523d6000602084013e610e6b565b606091505b5091509150610e7b828286610e86565b979650505050505050565b60608315610e95575081610c5c565b825115610ea55782518084602001fd5b8160405162461bcd60e51b81526004018080602001828103825283818151815260200191508051906020019080838360005b83811015610eef578181015183820152602001610ed7565b50505050905090810190601f168015610f1c5780820380516001836020036101000a031916815260200191505b509250505060405180910390fd5b80356001600160a01b038116811461025957600080fd5b60008083601f840112610f52578182fd5b50813567ffffffffffffffff811115610f69578182fd5b602083019150836020828501011115610f8157600080fd5b9250929050565b803563ffffffff8116811461025957600080fd5b60008060408385031215610fae578182fd5b610fb783610f2a565b9150610fc560208401610f2a565b90509250929050565b600080600060608486031215610fe2578081fd5b610feb84610f2a565b9250610ff960208501610f2a565b915061100760408501610f2a565b90509250925092565b600080600080600080600060c0888a03121561102a578283fd5b61103388610f2a565b965061104160208901610f2a565b955061104f60408901610f2a565b945061105d60608901610f2a565b93506080880135925060a088013567ffffffffffffffff81111561107f578283fd5b61108b8a828b01610f41565b989b979a50959850939692959293505050565b600080600080600080600060c0888a0312156110b8578283fd5b6110c188610f2a565b96506110cf60208901610f2a565b95506110dd60408901610f2a565b9450606088013593506110f260808901610f88565b925060a088013567ffffffffffffffff81111561107f578283fd5b600080600080600060808688031215611124578081fd5b61112d86610f2a565b945061113b60208701610f2a565b935060408601359250606086013567ffffffffffffffff81111561115d578182fd5b61116988828901610f41565b969995985093965092949392505050565b60008060008060008060a08789031215611192578182fd5b61119b87610f2a565b95506111a960208801610f2a565b9450604087013593506111be60608801610f88565b9250608087013567ffffffffffffffff8111156111d9578283fd5b6111e589828a01610f41565b979a9699509497509295939492505050565b6000806000806060858703121561120c578384fd5b61121585610f2a565b935061122360208601610f88565b9250604085013567ffffffffffffffff81111561123e578283fd5b61124a87828801610f41565b95989497509550505050565b60008060006040848603121561126a578283fd5b61127384610f88565b9250602084013567ffffffffffffffff81111561128e578283fd5b61129a86828701610f41565b9497909650939450505050565b60008284528282602086013780602084860101526020601f19601f85011685010190509392505050565b600081518084526112e9816020860160208601611507565b601f01601f19169290920160200192915050565b6000825161130f818460208701611507565b9190910192915050565b6001600160a01b0391909116815260200190565b6001600160a01b03878116825286811660208301528581166040830152841660608201526080810183905260c060a08201819052600090611370908301846112d1565b98975050505050505050565b6001600160a01b03888116825287811660208301528681166040830152851660608201526080810184905260c060a082018190526000906113c090830184866112a7565b9998505050505050505050565b600060018060a01b0386168252846020830152606060408301526113f56060830184866112a7565b9695505050505050565b6020808252600f908201526e4163636f756e74206e6f7420454f4160881b604082015260600190565b60208082526034908201527f5472616e7366657248656c7065723a3a736166655472616e736665724554483a60408201527308115512081d1c985b9cd9995c8819985a5b195960621b606082015260800190565b60208082526026908201527f436f6e74726163742068617320616c7265616479206265656e20696e697469616040820152653634bd32b21760d11b606082015260800190565b90815260200190565b6000848252604060208301526114e56040830184866112a7565b95945050505050565b600083825260406020830152610d2360408301846112d1565b60005b8381101561152257818101518382015260200161150a565b83811115610613575050600091015256fe416464726573733a20696e73756666696369656e742062616c616e636520666f722063616c6c4f564d5f58434841494e3a206d657373656e67657220636f6e747261637420756e61757468656e746963617465644f564d5f58434841494e3a2077726f6e672073656e646572206f662063726f73732d646f6d61696e206d6573736167655361666545524332303a204552433230206f7065726174696f6e20646964206e6f742073756363656564a164736f6c6343000706000a",
  "linkReferences": {},
  "deployedLinkReferences": {}
}